:100000000C945D000C941D040C94F6030C94850074
:100010000C9485000C9485000C9485000C9485004C
:100020000C9485000C9485000C9485000C9485003C
:100030000C9485000C9463050C9485000C94850049
:100040000C94AC030C9485000C9485000C948500F2
:100050000C9485000C9485000C9485000C9485000C
:100060000C9444040C948500000000002400270038
:100070002A0000000000250028002B0004040404CE
:100080000404040402020202020203030303030342
:10009000010204081020408001020408102001021F
:1000A00004081020000000080002010000030407FB
:1000B00000000000000000009B0711241FBECFEFCE
:1000C000D4E0DEBFCDBF11E0A0E0B1E0E4E7F2E1B3
:1000D00002C005900D92A83BB107D9F722E0A8EB2A
:1000E000B1E001C01D92A638B207E1F710E0CDE5FE
:1000F000D0E004C02197FE010E943209CC35D1071F
:10010000C9F70E948A050C9438090C940000982FB6
:100110002091850281E0213208F043C08091550290
:100120008111FCCF8091840232E03093550290938C
:1001300054029FEF90935302109252022093510267
:10014000A4E6B2E0E1E3F2E090E0291331C01092BE
:10015000300290913002880F892B80933002809179
:100160002F02813049F510922F0280913002809346
:10017000BB008091BC0083FDF8CF85EC8093BC0070
:10018000809155028230E1F3809153028F3FB1F0AC
:10019000809153028032A1F080915302803391F01C
:1001A00084E0109263021092850210926202089518
:1001B0003D9131939F5FC9CF85EEE0CF80E0F1CFD5
:1001C00082E0EFCF83E0EDCF90E0FC01EC55FF4FF4
:1001D0002491FC01E057FF4F3491FC01E458FF4F9C
:1001E000E491EE23C9F0222339F0233001F1A8F481
:1001F000213019F1223029F1F0E0EE0FFF1FEE5807
:10020000FF4FA591B4918FB7F894EC91611126C07E
:1002100030953E233C938FBF08952730A9F02830B6
:10022000C9F0243049F7809180008F7D03C0809110
:1002300080008F7780938000DFCF84B58F7784BD77
:10024000DBCF84B58F7DFBCF8091B0008F7780931B
:10025000B000D2CF8091B0008F7DF9CF3E2BDACFA6
:10026000CF93DF9390E0FC01E057FF4F2491845837
:100270009F4FFC0184918823D1F090E0880F991F53
:10028000FC01E859FF4FA591B491FC01EE58FF4FD6
:10029000C591D49161110EC09FB7F8948C91E22F53
:1002A000E0958E238C932881E223E8839FBFDF9122
:1002B000CF9108958FB7F894EC91E22BEC938FBF18
:1002C000F6CF08951092020108950895089585EDDE
:1002D0008093BC008091BC0084FDFCCF109255023D
:1002E00008952091D901260F3327331F213231057C
:1002F000ECF420915502FC0190E080E0243069F09C
:1003000082E00895A091D9012191AC0147545E4F3C
:10031000A40FB52FB11D2C930196861798F38091E9
:10032000D901680F6093D90180E0089581E00895B4
:100330000895E0910D0280910C02E81730F4F0E08E
:10034000E25FFD4F808190E008958FEF9FEF089569
:1003500090910D0280910C022FEF3FEF981748F417
:10036000E92FF0E0E25FFD4F208130E09F5F909346
:100370000D02C901089580910C0290910D02891B14
:10038000990B0895CF92DF92EF92FF920F931F93F4
:10039000CF93DF937C01CB018A012091620222235B
:1003A00089F0EB016B01C40ED51ECC15DD0569F09B
:1003B0006991D701ED91FC910190F081E02DC70189
:1003C0000995F3CF642F0E947101C801DF91CF918D
:1003D0001F910F91FF90EF90DF90CF900895CF93F2
:1003E000DF931F92CDB7DEB769832091620222238B
:1003F000F9F020918502203258F021E030E0FC0134
:100400003383228390E080E00F90DF91CF910895B5
:1004100080916302E82FF0E0EC59FD4F99819083C1
:100420008F5F809363028093850281E090E0ECCF40
:1004300061E0CE0101960E947101F7CFCF93C62FE4
:1004400090912E02906221E02093620290938402A8
:100450001092630210928502682F86E592E00E9456
:10046000EF016C2F86E592E00E94EF0181E0CF91D1
:100470000C94870090E080E00895CF92DF92EF9295
:10048000FF920F931F93CF93DF937C016B018A013F
:1004900060E085E00E94E40060E086E00E94E40005
:1004A00060E087E00E94E40060E088E00E94E400F1
:1004B00060E089E00E94E40060E08AE00E94E400DD
:1004C00061E08BE00E94E40093E0CC0CDD1C9A9587
:1004D000E1F7D0E0C0E0FE01EC0DFD1DEB5EFE4F4C
:1004E00060818CE00E94E40061E08FE00E94E40003
:1004F00060E08FE00E94E4002196C830D10559F7F2
:1005000083E0EE0CFF1C8A95E1F7D0E0C0E0FE012D
:10051000EE0DFF1DEB5EFE4F60818CE00E94E4005B
:1005200061E08FE00E94E40060E08FE00E94E40060
:100530002196C830D10559F761E08DE00E94E400B2
:1005400060E08DE00E94E40060E08BE00E94E40047
:1005500061E00230110591F003301105A9F085E04A
:100560000E94E40061E088E0DF91CF911F910F913C
:10057000FF90EF90DF90CF900C94E40086E00E9413
:10058000E40061E089E0F0CF87E00E94E40061E0F0
:100590008AE0EACF8091B8018230D9F0833021F12E
:1005A000813061F46091090170910A0141E050E0ED
:1005B00080910301909104010E943D028091B80155
:1005C0008F5F8093B801843019F481E08093B80183
:1005D000089560910B0170910C0142E050E0809110
:1005E000050190910601E8CF60910D0170910E0117
:1005F00043E050E08091070190910801DDCF6091C8
:100600000501709106018091070190910801860F04
:10061000971F2091090130910A01280F391F40913D
:100620000B0150910C01420F531F452B31F440E157
:1006300050E050930C0140930B01232B31F420E147
:1006400030E030930A0120930901892B31F480E1D5
:1006500090E09093080180930701672B31F480E1CB
:1006600090E0909306018093050108959C0180918C
:1006700055028111FCCF462F81E080935502809373
:1006800054029FEF9093530210925202960F909350
:1006900051028093300290913002220F331F892F34
:1006A000822B8093300280912F02813019F51092B5
:1006B0002F02809130028093BB008091BC0083FDAB
:1006C000F8CF85EC8093BC00809155028130E1F336
:1006D00080915202861710F440915202A1E3B2E0D9
:1006E000EEE0F2E080E0841307C010920D028093E8
:1006F0000C02089585EEE6CF9D9191938F5FF3CF25
:10070000CF9380912E02806291E090936202809359
:100710008402109263021092850262E186E592E003
:100720000E94EF0181E00E94870080912E0280628A
:1007300062E070E090E00E94360386E592E00E945D
:10074000A801C82F86E592E00E94A80120E0382F7A
:10075000C9018C2BCF9108951F920F920FB60F9263
:1007600011242F933F938F939F93AF93BF938091C7
:10077000080290910902A0910A02B0910B023091F7
:10078000070223E0230F2D3758F50196A11DB11D57
:10079000209307028093080290930902A0930A0213
:1007A000B0930B028091030290910402A091050284
:1007B000B09106020196A11DB11D80930302909392
:1007C0000402A0930502B0930602BF91AF919F91DE
:1007D0008F913F912F910F900FBE0F901F90189502
:1007E00026E8230F0296A11DB11DD2CF1F920F92B2
:1007F0000FB60F9211242F933F934F935F936F93F4
:100800007F938F939F93AF93BF93EF93FF93E09169
:100810001301F09114010995FF91EF91BF91AF91F0
:100820009F918F917F916F915F914F913F912F9108
:100830000F900FBE0F901F9018951F920F920FB63A
:100840000F9211242F933F934F935F936F937F9356
:100850008F939F93AF93BF93EF93FF93E091110119
:10086000F09112010995FF91EF91BF91AF919F9186
:100870008F917F916F915F914F913F912F910F9049
:100880000FBE0F901F9018951F920F920FB60F92E8
:1008900011242F933F934F935F936F937F938F9385
:1008A0009F93AF93BF93EF93FF938091B900887F9D
:1008B000803609F44AC0F0F5883209F4A7C018F56B
:1008C000803109F49BC0B8F4882309F4F9C088305A
:1008D00009F494C0FF91EF91BF91AF919F918F91D7
:1008E0007F916F915F914F913F912F910F900FBE2C
:1008F0000F901F901895883109F488C0803251F705
:100900008093530214C0803409F49DC040F48033B6
:10091000B9F38833F9F68093530285ECB0C0803583
:1009200009F485C0883509F496C0883499F60E9488
:100930006701D0CF883909F48CC038F5883729F0A1
:1009400050F4883611F0803729F683E08093550201
:100950001092FB0157C0883809F47BC0803919F028
:10096000803809F0B7CF8091FB01803208F071C068
:10097000E091FB0181E08E0F8093FB018091BB0031
:10098000F0E0E552FE4F80833DC0803B39F0E0F45B
:10099000803A09F479C0883A09F09CCF84E08093CA
:1009A00055021092DA011092D901E091FE01F09106
:1009B000FF0109958091D90181110FC081E08093D9
:1009C000D9011092B90109C0803C09F4A6CF883C36
:1009D00009F4A3CF883B09F07DCFE091DA0181E0F3
:1009E0008E0F8093DA01F0E0E754FE4F8081809310
:1009F000BB009091DA018091D90129C08091300229
:100A00008093BB0085EC8093BC0064CF9091520230
:100A100080915102981758F5E091520281E08E0FB3
:100A200080935202F0E0EF5CFD4F8081E9CFE091CE
:100A3000520281E08E0F809352028091BB00F0E061
:100A4000EF5CFD4F80839091520280915102981784
:100A5000C8F285E8D8CFE091520281E08E0F8093F2
:100A600052028091BB00F0E0EF5CFD4F80838091EB
:100A7000540281115CCF81E080932F0284EA80933D
:100A8000BC001092550226CF85EC8093BC001092DA
:100A900055028091FB01803230F4E091FB01F0E0DF
:100AA000E552FE4F10826091FB0170E0E091FC0185
:100AB000F091FD018BED91E009951092FB010ACFB9
:100AC0001092530234CF1F920F920FB60F9211243F
:100AD0002F933F934F935F936F937F938F939F9346
:100AE000AF93BF93EF93FF93E0910002F091010267
:100AF0000995FF91EF91BF91AF919F918F917F9158
:100B00006F915F914F913F912F910F900FBE0F907A
:100B10001F901895789484B5826084BD84B58160F7
:100B200084BD85B5826085BD85B5816085BD8091B8
:100B30006E00816080936E00109281008091810030
:100B40008260809381008091810081608093810028
:100B5000809180008160809380008091B1008460EA
:100B60008093B1008091B00081608093B00080914B
:100B70007A00846080937A0080917A00826080930A
:100B80007A0080917A00816080937A0080917A0067
:100B9000806880937A001092C10080E18093810088
:100BA0001092800080E89EE39093870080938600F7
:100BB00081E1809381008AEC92E09093010280931E
:100BC000000291E090936F0022E631E03093120131
:100BD0002093110180916900836080936900E89AF5
:100BE00087E080932E0210920D0210920C02109258
:100BF0006302109285021092550290935402109253
:100C00002F0261E082E10E94E40061E083E10E9442
:100C1000E4008091B9008E7F8093B9008091B90083
:100C20008D7F8093B90088E48093B80085E4809339
:100C3000BC0085E691E09093FF018093FE0186E67B
:100C400091E09093FD018093FC016FEF80E00E94A2
:100C50001E026FEF81E00E941E02C0E011E0812CB5
:100C6000912C54018394D1E0C83008F4D0E08091F5
:100C70002E028062109362028093840210926302BB
:100C8000109285026D2F86E592E00E94EF0181E0CF
:100C90000E94870080912E02806261E070E090E007
:100CA0000E94360386E592E00E94A8019C2F97706F
:100CB000B501A40104C0440F551F661F771F9A9504
:100CC000D2F7682F642B8D2F0E941E02CF5FC03198
:100CD00051F661E08CE00E94300161E08FE00E94FB
:100CE000300161E08DE00E94300161E08BE00E9404
:100CF000300161E085E00E94300161E086E00E9401
:100D0000300161E087E00E94300161E088E00E94EC
:100D1000300161E089E00E94300161E08AE00E94D8
:100D2000300160E082E00E94300160E083E00E94D8
:100D3000300160E08EE00E94300160E081E10E94BD
:100D4000300160E08DE00E94E40060E08FE00E94EE
:100D5000E40061E08BE00E94E40070E1872E77E21E
:100D6000972EA12CB12CE0E1CE2EE7E2DE2EF8EE9C
:100D70002F2EF3E03F2E04E610E0AAE0EA2EF12C3D
:100D80008091020181110BC080910101882339F00B
:100D900010920101809102028F5F80930202809184
:100DA0000201882319F081E08093010191E0909382
:100DB000020180910202823011F4109202020E941C
:100DC000800320910F013091100182179307E9F001
:100DD0000E9480039C01369527956FE0211531050F
:100DE00059F0880F991FA90141705527842B952B25
:100DF000369527956150F2CF02C0880F991F6A95EA
:100E0000E2F79093100180930F01809102028823F2
:100E100009F451C0F89481E190E09093040180932B
:100E200003011092060110920501C0910F01D091AB
:100E30001001BE0190E080E00E94E2072B013C011E
:100E400020E030E040E859E30E9448080E94AC07E7
:100E50006F707727709308016093070120E030E0FE
:100E600040E85BE3C301B2010E9448080E94AC075E
:100E70006F70772770930A0160930901CE0124E017
:100E8000969587952A95E1F78F70992790930C0195
:100E900080930B01CF70DD27D0930E01C0930D011D
:100EA0000E94FF02789480E090E0892B09F468CFDB
:100EB0000E94000065CFF89480E190E090930401D7
:100EC00080930301C0910F01D0911001BE0190E009
:100ED00080E0A50194010E94F1083093060120935F
:100EE0000501CE01B6010E94DD08B1010E94DD08B6
:100EF0007093080160930701CE01B1010E94DD08E3
:100F0000B8010E94DD0870930A0160930901CE01C7
:100F1000B8010E94DD08B7010E94DD0870930C0142
:100F200060930B01CE01B7010E94DD0890930E0182
:100F300080930D01B5CFE6E5F2E01382128288EED0
:100F400093E0A0E0B0E084839583A683B78389EA29
:100F500091E09183808308950E94B3076894B11152
:100F60000C94420808950E94270888F09F5798F033
:100F7000B92F9927B751B0F0E1F0660F771F881F9E
:100F8000991F1AF0BA95C9F714C0B13091F00E94B8
:100F90004108B1E008950C944108672F782F882705
:100FA000B85F39F0B93FCCF3869577956795B395DF
:100FB000D9F73EF490958095709561957F4F8F4F4E
:100FC0009F4F0895E89409C097FB3EF49095809553
:100FD000709561957F4F8F4F9F4F9923A9F0F92FFF
:100FE00096E9BB279395F695879577956795B7957D
:100FF000F111F8CFFAF4BB0F11F460FF1BC06F5F63
:101000007F4F8F4F9F4F16C0882311F096E911C074
:10101000772321F09EE8872F762F05C0662371F095
:1010200096E8862F70E060E02AF09A95660F771FA9
:10103000881FDAF7880F9695879597F9089557FDD9
:101040009058440F551F59F05F3F71F04795880F36
:1010500097FB991F61F09F3F79F0879508951216CD
:1010600013061406551FF2CF4695F1DF08C0161679
:1010700017061806991FF1CF86957105610508942A
:101080000895E894BB2766277727CB0197F9089541
:101090000E945B080C94CC080E94BE0838F00E94A5
:1010A000C50820F0952311F00C94B5080C94BB08EA
:1010B00011240C9442080E941F0870F3959FC1F3FD
:1010C000950F50E0551F629FF001729FBB27F00DF6
:1010D000B11D639FAA27F00DB11DAA1F649F66274B
:1010E000B00DA11D661F829F2227B00DA11D621F9A
:1010F000739FB00DA11D621F839FA00D611D221F54
:10110000749F3327A00D611D231F849F600D211D37
:10111000822F762F6A2F11249F5750409AF0F1F0BA
:1011200088234AF0EE0FFF1FBB1F661F771F881F23
:1011300091505040A9F79E3F510580F00C94B5089E
:101140000C9442085F3FE4F3983ED4F3869577957C
:101150006795B795F795E7959F5FC1F7FE2B880FC9
:10116000911D9695879597F9089597F99F6780E85F
:1011700070E060E008959FEF80EC089500240A94E9
:101180001616170618060906089500240A94121662
:101190001306140605060895092E0394000C11F495
:1011A000882352F0BB0F40F4BF2B11F460FF04C042
:1011B0006F5F7F4F8F4F9F4F0895AA1BBB1B51E15D
:1011C00007C0AA1FBB1FA617B70710F0A61BB70BB7
:1011D000881F991F5A95A9F780959095BC01CD015C
:1011E0000895052E97FB1EF400940E94080957FDF0
:1011F00007D00E94100907FC03D04EF40C94080994
:1012000050954095309521953F4F4F4F5F4F089532
:1012100090958095709561957F4F8F4F9F4F089562
:10122000A1E21A2EAA1BBB1BFD010DC0AA1FBB1FEA
:10123000EE1FFF1FA217B307E407F50720F0A21B5C
:10124000B30BE40BF50B661F771F881F991F1A94C9
:1012500069F760957095809590959B01AC01BD01F3
:10126000CF010895EE0FFF1F0590F491E02D099432
:04127000F894FFCF20
:101274000101010100020003000400050006007BD7
:10128400FA61016101010100010001010100000096
:101294000100000001010100000101000100010042
:1012A4000101010001000000010100010100010031
:1012B4000101010100010100010101010000000020
:1012C400010001000101010001010101010001000F
:1012D40001010101010100000101010101010100FD
:1012E40001010001000101000000010100010100F1
:1012F40001010000010101000001010100010000E1
:1013040000010101000000000000000000010001D4
:10131400010100010100000000EF01C2013A02983E
:0813240001BB01A801990100C1
:00000001FF
