:100000000C945D000C9485000C9485000C94850084
:100010000C9485000C9485000C9485000C9485004C
:100020000C9485000C9485000C9485000C9485003C
:100030000C9485000C94CE070C9485000C948500DC
:100040000C940D060C9485000C947D060C945706B8
:100050000C9485000C9485000C9485000C9485000C
:100060000C94AF060C9485000000000024002700CB
:100070002A0000000000250028002B0004040404CE
:100080000404040402020202020203030303030342
:10009000010204081020408001020408102001021F
:1000A00004081020000000080002010000030407FB
:1000B0000000000000000000F50711241FBECFEF74
:1000C000D4E0DEBFCDBF11E0A0E0B1E0ECE8F3E1A9
:1000D00002C005900D92A437B107D9F723E0A4E739
:1000E000B1E001C01D92A330B207E1F710E0CDE509
:1000F000D0E004C02197FE010E94BE09CC35D10793
:10010000C9F70E942E080C94C4090C940000982F83
:100110002091590281E0213208F043C080913502DC
:100120008111FCCF8091580232E0309335029093D8
:1001300034029FEF909333021092320220933102E7
:10014000A8E3B2E0E1E1F2E090E0291331C01092BF
:10015000100290911002880F892B809310028091D9
:100160000F02813049F510920F02809110028093A6
:10017000BB008091BC0083FDF8CF85EC8093BC0070
:10018000809135028230E1F3809133028F3FB1F0EC
:10019000809133028032A1F080913302803391F05C
:1001A00084E010923702109259021092360208959C
:1001B0003D9131939F5FC9CF85EEE0CF80E0F1CFD5
:1001C00082E0EFCF83E0EDCF90E0FC01EC55FF4FF4
:1001D0002491FC01E057FF4F3491FC01E458FF4F9C
:1001E000E491EE23C9F0222339F0233001F1A8F481
:1001F000213019F1223029F1F0E0EE0FFF1FEE5807
:10020000FF4FA591B4918FB7F894EC91611126C07E
:1002100030953E233C938FBF08952730A9F02830B6
:10022000C9F0243049F7809180008F7D03C0809110
:1002300080008F7780938000DFCF84B58F7784BD77
:10024000DBCF84B58F7DFBCF8091B0008F7780931B
:10025000B000D2CF8091B0008F7DF9CF3E2BDACFA6
:10026000EF92FF920F931F93CF93DF93CDB7DEB73B
:1002700068970FB6F894DEBF0FBECDBF8E01075F43
:100280001F4F8530910509F41FC10CF0A1C08230C9
:10029000910509F4F3C00CF081C0009709F4C8C0BF
:1002A000019709F4D8C06530710509F4EBC10CF071
:1002B00071C16230710509F4C1C10CF051C1611501
:1002C000710509F497C16130710509F4A5C160E0B9
:1002D0004230510509F41EC24330510509F430C2C1
:1002E00087E00E94E40060E08AE00E94E40061E0B0
:1002F00085E00E94E40060E086E00E94E40061E0A6
:1003000088E00E94E40060E089E00E94E40061E08F
:100310008BE00E94E4007E0181E1E80EF11CF8010F
:1003200061918F018CE00E94E40061E08FE00E9407
:10033000E40060E08FE00E94E400E016F10679F747
:1003400087017E01F9E1EF0EF11CF80161918F0147
:100350008CE00E94E40061E08FE00E94E40060E035
:100360008FE00E94E400E016F10679F761E08DE08D
:100370000E94E40060E08DE00E94E40060E08BE019
:1003800068960FB6F894DEBF0FBECDBFDF91CF9158
:100390001F910F91FF90EF900C94E4008330910532
:1003A00009F47FC0049709F07ECF88E0E0E0F1E037
:1003B000DE01119601900D928A95E1F7FE013196CA
:1003C000DE01519681918D93E017F107D9F76BCF3C
:1003D0008830910509F49EC0D4F48630910509F463
:1003E00086C0079709F05FCF88E0E8E0F1E0DE0122
:1003F000119601900D928A95E1F7FE013196DE018A
:10040000519681918D93E017F107D9F74CCF893040
:10041000910509F492C08436910509F044CF198AF8
:100420001A8A1B8A1C8A1D8A1E8A1F8A188E3BCF35
:1004300088E0E0E1F1E0DE01119601900D928A95ED
:10044000E1F7FE013196DE01519681918D93E0171F
:10045000F107D9F728CF88E0E8E1F1E0DE01119655
:1004600001900D928A95E1F7FE013196DE015196D9
:1004700081918D93E017F107D9F715CF88E0E0E27D
:10048000F1E0DE01119601900D928A95E1F7FE01EF
:100490003196DE01519681918D93E017F107D9F7DE
:1004A00002CF88E0E8E2F1E0DE01119601900D92C2
:1004B0008A95E1F7FE013196DE01519681918D9387
:1004C000E017F107D9F7EFCE88E0E0E3F1E0DE01D5
:1004D000119601900D928A95E1F7FE013196DE01A9
:1004E000519681918D93E017F107D9F7DCCE88E022
:1004F000E8E3F1E0DE01119601900D928A95E1F7B3
:10050000FE013196DE01519681918D93E017F1073E
:10051000D9F7C9CE88E0E0E4F1E0DE011196019060
:100520000D928A95E1F7FE013196DE015196819197
:100530008D93E017F107D9F7B6CE88E0E8E4F1E053
:10054000DE01119601900D928A95E1F7FE01319638
:10055000DE01519681918D93E017F107D9F7A3CE73
:100560006330710509F47CC06430710509F0AFCEC9
:1005700088E0E0E0F1E0DE01119601900D928A95AD
:10058000E1F7FE013196D80181918D93E017F107D3
:10059000D9F79DCE6830710509F498C0D4F466305F
:1005A000710509F481C06730710509F090CE88E0CB
:1005B000E8E0F1E0DE01119601900D928A95E1F7F5
:1005C000FE013196D80181918D93E017F107D9F79B
:1005D0007ECE6930710509F48BC06436710509F06F
:1005E00076CE19861A861B861C861D861E861F8659
:1005F000188A6DCE88E0E0E1F1E0DE01119601900D
:100600000D928A95E1F7FE013196D80181918D9383
:10061000E017F107D9F75BCE88E0E8E1F1E0DE0111
:10062000119601900D928A95E1F7FE013196D8015D
:1006300081918D930E171F07D9F749CE88E0E0E22C
:10064000F1E0DE01119601900D928A95E1F7FE012D
:100650003196D80181918D93E017F107D9F737CE04
:1006600088E0E8E2F1E0DE01119601900D928A95B2
:10067000E1F7FE013196D80181918D93E017F107E2
:10068000D9F725CE88E0E0E3F1E0DE011196019094
:100690000D928A95E1F7FE013196D80181918D93F3
:1006A000E017F107D9F713CE88E0E8E3F1E0DE01C7
:1006B000119601900D928A95E1F7FE013196D801CD
:1006C00081918D93E017F107D9F701CE88E0E0E43E
:1006D000F1E0DE01119601900D928A95E1F7FE019D
:1006E0003196D80181918D93E017F107D9F7EFCDBD
:1006F00088E0E8E4F1E0DE01119601900D928A9520
:10070000E1F7FE013196D80181918D93E017F10751
:10071000D9F7DDCD85E00E94E40060E088E00E942A
:10072000E40061E086E00E94E40060E087E00E946F
:10073000E40061E089E00E94E40060E08AE0E5CD49
:1007400086E00E94E40060E089E00E94E40060E04E
:1007500085E00E94E40061E087E00E94E40060E040
:1007600088E00E94E40061E0E9CFCF93DF9390E05E
:10077000FC01E057FF4F249184589F4FFC01849166
:100780008823D1F090E0880F991FFC01E859FF4FB2
:10079000A591B491FC01EE58FF4FC591D491611120
:1007A0000EC09FB7F8948C91E22FE0958E238C9326
:1007B0002881E223E8839FBFDF91CF9108958FB70F
:1007C000F894EC91E22BEC938FBFF6CFAF92BF92EF
:1007D000CF92DF92EF92FF920F931F93CF93DF930D
:1007E0006C017B018B01040F151FEB015E01AE183C
:1007F000BF08C017D10759F06991D601ED91FC915E
:100800000190F081E02DC6010995892B79F7C5018A
:10081000DF91CF911F910F91FF90EF90DF90CF90DC
:10082000BF90AF90089508950895FC01538D448DB5
:10083000252F30E0842F90E0821B930B541710F08B
:10084000CF96089501970895FC01918D828D981798
:1008500061F0A28DAE0FBF2FB11D5D968C91928D70
:100860009F5F9F73928F90E008958FEF9FEF0895A1
:10087000FC01918D828D981731F0828DE80FF11D6A
:10088000858D90E008958FEF9FEF0895FC01918D85
:10089000228D892F90E0805C9F4F821B91098F737E
:1008A000992708958AE592E00E94460421E0892B69
:1008B00009F420E0822F089580E090E0892B29F050
:1008C0000E94520481110C9400000895FC01A48D33
:1008D000A80FB92FB11DA35ABF4F2C91848D90E062
:1008E00001968F739927848FA689B7892C93A08945
:1008F000B1898C91837080648C93938D848D9813CF
:1009000006C00288F389E02D80818F7D8083089561
:10091000EF92FF920F931F93CF93DF93EC0181E04F
:10092000888F9B8D8C8D98131AC0E889F9898081F6
:1009300085FF15C09FB7F894EE89FF896083E88929
:10094000F98980818370806480839FBF81E090E01B
:10095000DF91CF911F910F91FF90EF900895F62EA8
:100960000B8D10E00F5F1F4F0F731127E02E8C8D42
:100970008E110CC00FB607FCFACFE889F989808187
:1009800085FFF5CFCE010E946604F1CFEB8DEC0F11
:10099000FD2FF11DE35AFF4FF0829FB7F8940B8FA4
:1009A000EA89FB8980818062CFCFCF93DF93EC010E
:1009B000888D8823B9F0AA89BB89E889F9898C9147
:1009C00085FD03C0808186FD0DC00FB607FCF7CF03
:1009D0008C9185FFF2CF808185FFEDCFCE010E9403
:1009E0006604E9CFDF91CF91089585ED8093BC0037
:1009F0008091BC0084FDFCCF1092350208952091B7
:100A0000BA01260F3327331F21323105ECF4209130
:100A10003502FC0190E080E0243069F082E0089526
:100A2000A091BA012191AC0146565E4FA40FB52F9B
:100A3000B11D2C930196861798F38091BA01680F27
:100A40006093BA0180E0089581E008950895E091EF
:100A5000E2018091E101E81730F4F0E0ED51FE4F42
:100A6000808190E008958FEF9FEF08959091E201CB
:100A70008091E1012FEF3FEF981748F4E92FF0E064
:100A8000ED51FE4F208130E09F5F9093E201C9015C
:100A900008958091E1019091E201891B990B0895DD
:100AA000CF92DF92EF92FF920F931F93CF93DF933A
:100AB0007C01CB018A0120913602222389F0EB01CF
:100AC0006B01C40ED51ECC15DD0569F06991D70107
:100AD000ED91FC910190F081E02DC7010995F3CFD4
:100AE000642F0E94FF04C801DF91CF911F910F91E5
:100AF000FF90EF90DF90CF900895CF93DF931F92F8
:100B0000CDB7DEB76983209136022223F9F0209118
:100B10005902203258F021E030E0FC013383228377
:100B200090E080E00F90DF91CF910895809137029F
:100B3000E82FF0E0E85CFD4F998190838F5F809310
:100B400037028093590281E090E0ECCF61E0CE0162
:100B500001960E94FF04F7CFCF93C62F90910E020B
:100B6000906221E02093360290935802109237024F
:100B700010925902682F87EF92E00E947D056C2F3A
:100B800087EF92E00E947D0581E0CF910C94870071
:100B900090E080E0089580919901811127C08091B3
:100BA0009701909198018230910509F18330910568
:100BB00049F1019751F4609191017091920142E0E5
:100BC00050E084E690E00E9430018091970190917E
:100BD000980101969093980180939701049731F4BE
:100BE00081E090E09093980180939701089560913F
:100BF00093017091940180918D0190918E0143E059
:100C000050E0E1CF609195017091960180918F0144
:100C10009091900141E050E0D6CF1F920F920FB615
:100C20000F9211242F933F938F939F93AF93BF9372
:100C300080910A0290910B02A0910C02B0910D02DA
:100C40003091090223E0230F2D3758F50196A11D9D
:100C5000B11D2093090280930A0290930B02A09386
:100C60000C02B0930D028091050290910602A091B2
:100C70000702B09108020196A11DB11D80930502E3
:100C800090930602A0930702B0930802BF91AF9120
:100C90009F918F913F912F910F900FBE0F901F90BA
:100CA000189526E8230F0296A11DB11DD2CF1F92E1
:100CB0000F920FB60F9211242F933F934F935F9390
:100CC0006F937F938F939F93AF93BF93EF93FF9314
:100CD0008AE592E00E946604FF91EF91BF91AF9187
:100CE0009F918F917F916F915F914F913F912F9144
:100CF0000F900FBE0F901F9018951F920F920FB676
:100D00000F9211242F938F939F93EF93FF93E09172
:100D10006A02F0916B028081E0917002F0917102A1
:100D200082FD1BC09081809173028F5F8F73209131
:100D30007402821741F0E0917302F0E0E65AFD4F31
:100D4000958F80937302FF91EF919F918F912F91D7
:100D50000F900FBE0F901F9018958081F4CF1F92B7
:100D60000F920FB60F9211242F933F934F935F93DF
:100D70006F937F938F939F93AF93BF93EF93FF9363
:100D80008091B900887F803609F44AC0F0F5883236
:100D900009F4A7C018F5803109F49BC0B8F4882382
:100DA00009F4F9C0883009F494C0FF91EF91BF9124
:100DB000AF919F918F917F916F915F914F913F91F3
:100DC0002F910F900FBE0F901F901895883109F446
:100DD00088C0803251F78093330214C0803409F404
:100DE0009DC040F48033B9F38833F9F68093330221
:100DF00085ECB0C0803509F485C0883509F496C00B
:100E0000883499F60E94F504D0CF883909F48CC053
:100E100038F5883729F050F4883611F0803729F6F4
:100E200083E0809335021092DC0157C0883809F4C2
:100E30007BC0803919F0803809F0B7CF8091DC0190
:100E4000803208F071C0E091DC0181E08E0F809368
:100E5000DC018091BB00F0E0E454FE4F80833DC094
:100E6000803B39F0E0F4803A09F479C0883A09F01F
:100E70009CCF84E0809335021092BB011092BA019E
:100E8000E091DF01F091E00109958091BA018111B3
:100E90000FC081E08093BA0110929A0109C0803C92
:100EA00009F4A6CF883C09F4A3CF883B09F07DCF95
:100EB000E091BB0181E08E0F8093BB01F0E0E6562C
:100EC000FE4F80818093BB009091BB018091BA015D
:100ED00029C0809110028093BB0085EC8093BC00F8
:100EE00064CF9091320280913102981758F5E091C9
:100EF000320281E08E0F80933202F0E0EF5EFD4F10
:100F00008081E9CFE091320281E08E0F809332023E
:100F10008091BB00F0E0EF5EFD4F80839091320244
:100F2000809131029817C8F285E8D8CFE09132025B
:100F300081E08E0F809332028091BB00F0E0EF5E83
:100F4000FD4F80838091340281115CCF81E08093DA
:100F50000F0284EA8093BC001092350226CF85EC04
:100F60008093BC00109235028091DC01803230F415
:100F7000E091DC01F0E0E454FE4F10826091DC016E
:100F800070E0E091DD01F091DE018CEB91E00995DC
:100F90001092DC010ACF1092330234CF1F920F92CD
:100FA0000FB60F9211242F933F934F935F936F933C
:100FB0007F938F939F93AF93BF93EF93FF93E091B2
:100FC0000302F09104020995FF91EF91BF91AF9157
:100FD0009F918F917F916F915F914F913F912F9151
:100FE0000F900FBE0F901F901895EAE5F2E0138264
:100FF000128288EE93E0A0E0B0E084839583A6831C
:10100000B78324E531E03183208325EC30E0358758
:10101000248724EC30E03787268720EC30E0318BC2
:10102000208B21EC30E0338B228B22EC30E0358BAF
:10103000248B26EC30E0378B268B118E128E138E8C
:10104000148EE7EFF2E01382128284839583A683E5
:10105000B78386E691E0918380830895789484B580
:10106000826084BD84B5816084BD85B5826085BDA4
:1010700085B5816085BD80916E00816080936E0032
:101080001092810080918100826080938100809124
:1010900081008160809381008091800081608093D5
:1010A00080008091B10084608093B1008091B00095
:1010B00081608093B00080917A00846080937A0090
:1010C00080917A00826080937A0080917A008160BA
:1010D00080937A0080917A00806880937A001092E1
:1010E000C100E0916A02F0916B0282E08083E0919E
:1010F0006602F09167021082E0916802F091690245
:1011000090E1908310927202E0916E02F0916F0272
:1011100086E08083E0916C02F0916D0280818061B5
:101120008083E0916C02F0916D0280818860808301
:10113000E0916C02F0916D02808180688083E09183
:101140006C02F0916D0280818F7D8083909381008D
:101150001092800080E89EE3909387008093860041
:1011600081E1809381008BEC95E090930402809361
:10117000030281E080936F0097E090930E0210923B
:10118000E2011092E101109237021092590210927E
:1011900035028093340210920F0261E082E10E94D6
:1011A000E40061E083E10E94E4008091B9008E7F59
:1011B0008093B9008091B9008D7F8093B90088E455
:1011C0008093B80085E48093BC0083E194E0909321
:1011D000E0018093DF0184E194E09093DE0180934D
:1011E000DD016FEF80E00E94AC056FEF81E00E94AF
:1011F000AC05C0E0D1E00FEF85EEB82E95ECA92E3E
:10120000C12CD12C7601C39411E0C83008F410E051
:101210008C2F8770982E80910E028062D0933602B8
:10122000809358021092370210925902612F87EF73
:1012300092E00E947D0581E00E9487008091350246
:101240008111FCCF80910E02D0933502D0933402ED
:10125000009333021092320210923102D0931002A6
:10126000909110028062880F892B809310028091E8
:101270000F02813009F07BC010920F0280911002A2
:101280008093BB008091BC0083FDF8CFA092BC008E
:10129000809135028130E1F38091320291E0811139
:1012A00002C090913202A1E1B2E0E3EEF1E080E011
:1012B000891360C01092E2018093E10187EF92E010
:1012C0000E943605B701A60104C0440F551F661FD2
:1012D000771F9A94D2F7682F642B812F0E94AC0558
:1012E000CF5FC03109F090CF61E08CE00E94B50380
:1012F00061E08FE00E94B50361E08DE00E94B503DC
:1013000061E08BE00E94B50361E085E00E94B503D7
:1013100061E086E00E94B50361E087E00E94B503CA
:1013200061E088E00E94B50361E089E00E94B503B6
:1013300061E08AE00E94B50360E081E10E94B503AC
:1013400060E08DE00E94E40060E08FE00E94E40035
:1013500061E08BE00E94E400C0E0D0E02097F1F370
:101360000E9452048823D1F30E940000F7CFB0926C
:10137000BC008ECF2D9121938F5F9ACFEE0FFF1F70
:0C1380000590F491E02D0994F894FFCF43
:10138C00000000010100010100000001000100014A
:10139C000101000100010101000000010000000139
:1013AC000101000001010001000100010101000127
:1013BC000001000101010100010100010101010016
:1013CC000101000101010101000100010101010104
:1013DC00000000008804E6031504D5044604240428
:1013EC003804000000007D055005C8052605490598
:0413FC003605270586
:00000001FF
