:100000000C945D000C94AD040C9486040C94850053
:100010000C9485000C9485000C9485000C9485004C
:100020000C9485000C9485000C9485000C9485003C
:100030000C9485000C94F3050C9485000C948500B9
:100040000C943C040C9485000C9485000C94850061
:100050000C9485000C9485000C9485000C9485000C
:100060000C94D4040C9485000000000024002700A8
:100070002A0000000000250028002B0004040404CE
:100080000404040402020202020203030303030342
:10009000010204081020408001020408102001021F
:1000A00004081020000000080002010000030407FB
:1000B00000000000000000002E0911241FBECFEF39
:1000C000D4E0DEBFCDBF11E0A0E0B1E0E4E3F5E1B4
:1000D00002C005900D92A23BB107D9F722E0A2EB36
:1000E000B1E001C01D92A239B207E1F710E0CDE501
:1000F000D0E004C02197FE010E94920ACC35D107BE
:10010000C9F70E941A060C94980A0C940000982FC4
:100110002091910281E0213208F043C08091610278
:100120008111FCCF8091900232E030936102909374
:1001300060029FEF90935F0210925E0220935D0237
:10014000A0E7B2E0EDE3F2E090E0291331C01092B5
:100150003C0290913C02880F892B80933C02809155
:100160003B02813049F510923B0280913C02809322
:10017000BB008091BC0083FDF8CF85EC8093BC0070
:10018000809161028230E1F380915F028F3FB1F094
:1001900080915F028032A1F080915F02803391F004
:1001A00084E010926F021092910210926E020895F4
:1001B0003D9131939F5FC9CF85EEE0CF80E0F1CFD5
:1001C00082E0EFCF83E0EDCF909161029111FCCFFF
:1001D00091E090936102909360022FEF20935F0271
:1001E00010925E02260F20935D0290933C02909144
:1001F0003C02880F892B80933C0280913B02813026
:10020000F9F410923B0280913C028093BB008091F4
:10021000BC0083FDF8CF85EC8093BC008091610227
:100220008130E1F380915E02861710F460915E02E6
:10023000ADE3B2E0EAE1F2E080E0861303C00895A6
:1002400085EEEACF9D9191938F5FF7CF90E0FC010F
:10025000EC55FF4F2491FC01E057FF4F3491FC0116
:10026000E458FF4FE491EE23C9F0222339F0233004
:1002700001F1A8F4213019F1223029F1F0E0EE0F5C
:10028000FF1FEE58FF4FA591B4918FB7F894EC91F2
:10029000611126C030953E233C938FBF08952730CF
:1002A000A9F02830C9F0243049F7809180008F7D73
:1002B00003C0809180008F7780938000DFCF84B56A
:1002C0008F7784BDDBCF84B58F7DFBCF8091B0006D
:1002D0008F778093B000D2CF8091B0008F7DF9CF1F
:1002E0003E2BDACFAF92BF92CF92DF92EF92FF9286
:1002F0000F931F93CF93DF93CDB7DEB7C858D109C3
:100300000FB6F894DEBF0FBECDBF6C015B017A0162
:1003100088E8E8E1F1E0DE01119601900D928A95FE
:10032000E1F760E085E00E94260160E086E00E943F
:10033000260160E087E00E94260160E088E00E94DC
:10034000260160E089E00E94260160E08AE00E94C8
:10035000260161E08BE00E94260193E0AA0CBB1C01
:100360009A95E1F710E000E0F801EA0DFB1D81E04D
:1003700090E08C0F9D1FE80FF91F60818CE00E94B8
:10038000260161E08FE00E94260160E08FE00E947C
:1003900026010F5F1F4F0830110531F783E0CC0CA9
:1003A000DD1C8A95E1F710E000E0F801EC0DFD1D81
:1003B00081E090E08C0F9D1FE80FF91F60818CE0B9
:1003C0000E94260161E08FE00E94260160E08FE03C
:1003D0000E9426010F5F1F4F0830110531F761E0C1
:1003E0008DE00E94260160E08DE00E94260160E021
:1003F0008BE00E94260161E092E0E916F104E1F051
:1004000083E0E816F104F1F085E00E94260161E046
:1004100088E0C857DF4F0FB6F894DEBF0FBECDBFE0
:10042000DF91CF911F910F91FF90EF90DF90CF90D0
:10043000BF90AF900C94260186E00E94260161E0F7
:1004400089E0E7CF87E00E94260161E08AE0E1CF02
:10045000CF93DF9390E0FC01E057FF4F2491845845
:100460009F4FFC0184918823D1F090E0880F991F61
:10047000FC01E859FF4FA591B491FC01EE58FF4FE4
:10048000C591D49161110EC09FB7F8948C91E22F61
:10049000E0958E238C932881E223E8839FBFDF9130
:1004A000CF9108958FB7F894EC91E22BEC938FBF26
:1004B000F6CF08958091C2019091C30182309105D9
:1004C00019F18330910559F1019761F460910901A7
:1004D00070910A01809103019091040141E050E084
:1004E0000E9472018091C2019091C3010196909384
:1004F000C3018093C201049731F481E090E09093AE
:10050000C3018093C201089560910B0170910C01A9
:10051000809105019091060142E050E0E1CF6091A9
:100520000D0170910E01809107019091080143E047
:1005300050E0D6CF81E0809313010895109202011C
:100540001092010108950895089585ED8093BC00EF
:100550008091BC0084FDFCCF10926102089520912F
:10056000E401260F3327331F21323105ECF42091AB
:100570006102FC0190E080E0243069F082E008959F
:10058000A091E4012191AC014C535E4FA40FB52F13
:10059000B11D2C930196861798F38091E401680FA2
:1005A0006093E40180E0089581E008950895E0916A
:1005B000190280911802E81730F4F0E0E65EFD4F72
:1005C000808190E008958FEF9FEF08959091190238
:1005D000809118022FEF3FEF981748F4E92FF0E0D1
:1005E000E65EFD4F208130E09F5F90931902C901C4
:1005F00008958091180290911902891B990B089512
:10060000CF92DF92EF92FF920F931F93CF93DF93DE
:100610007C01CB018A0120916E02222389F0EB013B
:100620006B01C40ED51ECC15DD0569F06991D701AB
:10063000ED91FC910190F081E02DC7010995F3CF78
:10064000642F0E94AF02C801DF91CF911F910F91DB
:10065000FF90EF90DF90CF900895CF93DF931F929C
:10066000CDB7DEB7698320916E022223F9F0209185
:100670009102203258F021E030E0FC0133832283E4
:1006800090E080E00F90DF91CF91089580916F020C
:10069000E82FF0E0E059FD4F998190838F5F8093C0
:1006A0006F028093910281E090E0ECCF61E0CE0197
:1006B00001960E94AF02F7CFCF93C62F90913A02D6
:1006C000906221E020936E029093900210926F024C
:1006D00010929102682F82E692E00E942D036C2F07
:1006E00082E692E00E942D0381E0CF910C94870076
:1006F00090E080E008958091030190910401E091E1
:100700000501F09106016091070170910801409187
:10071000090150910A0120910B0130910C018E0FBB
:100720009F1F860F971F840F951F820F931F892B82
:1007300031F480E190E090930C0180930B01809163
:1007400003019091040160910501709106014091AF
:100750000701509108012091090130910A01860F8B
:10076000971F840F951F820F931F892B31F480E10F
:1007700090E090930A018093090180910301909188
:10078000040140910501509106012091070130912B
:100790000801840F951F820F931F892B31F480E18C
:1007A00090E090930801809307018091030190915C
:1007B00004012091050130910601820F931F892BBE
:1007C00031F480E190E090930601809305018091DF
:1007D000030190910401892B31F480E190E0909322
:1007E000040180930301089590913A02906221E000
:1007F00020936E029093900210926F0210929102D9
:10080000682F82E692E00E942D0381E00E9487001B
:1008100080913A0261E080620E94E4001092190225
:100820008093180282E692E00E94E60208951F93E8
:10083000CF93DF93C82F162FD22F883008F4D42FF0
:100840008D2F0E94F403C77041E050E060E070E03B
:1008500004C0440F551F661F771FCA95D2F7112396
:1008600041F0482B642F8D2FDF91CF911F910C9475
:100870005C0340954823F6CF1F920F920FB60F925C
:1008800011242F933F938F939F93AF93BF938091A6
:10089000140290911502A0911602B09117023091A6
:1008A000130223E0230F2D3758F50196A11DB11D2A
:1008B000209313028093140290931502A0931602C2
:1008C000B093170280910F0290911002A091110233
:1008D000B09112020196A11DB11D80930F02909359
:1008E0001002A0931102B0931202BF91AF919F9199
:1008F0008F913F912F910F900FBE0F901F901895E1
:1009000026E8230F0296A11DB11DD2CF1F920F9290
:100910000FB60F9211242F933F934F935F936F93D2
:100920007F938F939F93AF93BF93EF93FF93E09148
:100930001601F09117010995FF91EF91BF91AF91C9
:100940009F918F917F916F915F914F913F912F91E7
:100950000F900FBE0F901F9018951F920F920FB619
:100960000F9211242F933F934F935F936F937F9335
:100970008F939F93AF93BF93EF93FF93E0911401F5
:10098000F09115010995FF91EF91BF91AF919F9162
:100990008F917F916F915F914F913F912F910F9028
:1009A0000FBE0F901F9018951F920F920FB60F92C7
:1009B00011242F933F934F935F936F937F938F9364
:1009C0009F93AF93BF93EF93FF938091B900887F7C
:1009D000803609F44AC0F0F5883209F4A7C018F54A
:1009E000803109F49BC0B8F4882309F4F9C0883039
:1009F00009F494C0FF91EF91BF91AF919F918F91B6
:100A00007F916F915F914F913F912F910F900FBE0A
:100A10000F901F901895883109F488C0803251F7E3
:100A200080935F0214C0803409F49DC040F4803389
:100A3000B9F38833F9F680935F0285ECB0C0803556
:100A400009F485C0883509F496C0883499F60E9467
:100A5000A502D0CF883909F48CC038F5883729F041
:100A600050F4883611F0803729F683E080936102D4
:100A70001092060257C0883809F47BC0803919F0FB
:100A8000803809F0B7CF80910602803208F071C03B
:100A9000E091060281E08E0F809306028091BB00F8
:100AA000F0E0EA51FE4F80833DC0803B39F0E0F436
:100AB000803A09F479C0883A09F09CCF84E08093A9
:100AC00061021092E5011092E401E0910902F091B7
:100AD0000A0209958091E40181110FC081E08093A1
:100AE000E4011092C40109C0803C09F4A6CF883CFF
:100AF00009F4A3CF883B09F07DCFE091E50181E0C7
:100B00008E0F8093E501F0E0EC53FE4F80818093DF
:100B1000BB009091E5018091E40129C080913C02E5
:100B20008093BB0085EC8093BC0064CF90915E0203
:100B300080915D02981758F5E0915E0281E08E0F7A
:100B400080935E02F0E0E35CFD4F8081E9CFE091AD
:100B50005E0281E08E0F80935E028091BB00F0E028
:100B6000E35CFD4F808390915E0280915D02981757
:100B7000C8F285E8D8CFE0915E0281E08E0F8093C5
:100B80005E028091BB00F0E0E35CFD4F80838091CA
:100B9000600281115CCF81E080933B0284EA809304
:100BA000BC001092610226CF85EC8093BC001092AD
:100BB000610280910602803230F4E0910602F0E09A
:100BC000EA51FE4F10826091060270E0E091070248
:100BD000F091080286EE91E00995109206020ACF84
:100BE00010925F0234CF1F920F920FB60F92112412
:100BF0002F933F934F935F936F937F938F939F9325
:100C0000AF93BF93EF93FF93E0910B02F0910C022F
:100C10000995FF91EF91BF91AF919F918F917F9136
:100C20006F915F914F913F912F910F900FBE0F9059
:100C30001F901895789484B5826084BD84B58160D6
:100C400084BD85B5826085BD85B5816085BD809197
:100C50006E00816080936E0010928100809181000F
:100C60008260809381008091810081608093810007
:100C7000809180008160809380008091B1008460C9
:100C80008093B1008091B00081608093B00080912A
:100C90007A00846080937A0080917A0082608093E9
:100CA0007A0080917A00816080937A0080917A0046
:100CB000806880937A001092C10080E18093810067
:100CC0001092800080E89EE39093870080938600D6
:100CD00081E1809381008AE592E090930C028093F9
:100CE0000B0291E090936F002AE932E030931701F4
:100CF0002093160180916900837F8860809369004A
:100D0000E99A2EE932E03093150120931401809185
:100D10006900836080936900E89A87E080933A02D3
:100D2000109219021092180210926F021092910202
:100D3000109261029093600210923B0261E082E1A6
:100D40000E94260161E083E10E9426018091B900A2
:100D50008E7F8093B9008091B9008D7F8093B90018
:100D600088E48093B80085E48093BC0083EA92E035
:100D700090930A028093090284EA92E09093080219
:100D8000809307026FEF80E00E945C036FEF81E0C9
:100D90000E945C038AE00E94F403897F682F6064EC
:100DA0008AE00E945C038BE00E94F403897F682F35
:100DB00060648BE00E945C03C0E021E040E061E001
:100DC0008C2F0E94170429E048E060E08C2F0E94DD
:100DD000170427E046E060E08C2F0E94170425E00E
:100DE00044E061E08C2F0E941704CF5FC03129F7E7
:100DF00061E08CE00E94280261E08FE00E942802FE
:100E000061E08DE00E94280261E08BE00E942802F0
:100E100061E085E00E94280261E086E00E942802ED
:100E200061E087E00E94280261E088E00E942802D9
:100E300061E089E00E94280261E08AE00E942802C5
:100E400060E082E00E94280260E083E00E942802C5
:100E500060E08EE00E94280260E081E10E942802AA
:100E600060E08DE00E94260160E08FE00E94260194
:100E700061E08BE00E942601A8EECA2EA3E0DA2EE4
:100E8000E12CF12CB4E68B2E912CA12CB12CCAE0D4
:100E90004C2E512C612C712CC1E000E010E08091AF
:100EA000010190910201892B79F48091000188233E
:100EB00059F01092000180910D0290910E0201965E
:100EC00090930E0280930D02809101019091020196
:100ED000892B11F0C093000181E090E09093020112
:100EE0008093010180910D0290910E02029721F4EE
:100EF00010920E0210920D0280911301882309F4C2
:100F000098C080913A028062C0936E0280939002F2
:100F100010926F021092910262E182E692E00E94CA
:100F20002D0381E00E94870080913A0262E0806296
:100F30000E94E400109219028093180282E692E067
:100F40000E94E602D82F82E692E00E94E602382E46
:100F5000212CC1018D2BB0E0A0E080930F01909374
:100F60001001A0931101B093120180910F01909193
:100F70001001A0911101B091120140910F01509107
:100F80001001609111017091120176956795579546
:100F9000479540930F015093100160931101709396
:100FA00012012FE030E040910F015091100160914B
:100FB000110170911201452B462B472B39F14091BD
:100FC0000F01509110016091110170911201417057
:100FD000552766277727880F991F842B952B4091DB
:100FE0000F015091100160911101709112017695DD
:100FF00067955795479540930F0150931001609363
:1010000011017093120121503109CDCF02C0880F18
:10101000991F2A95E2F7092E000CAA0BBB0B8093AF
:101020000F0190931001A0931101B093120110923F
:10103000130180910D0290910E02892B09F48EC04C
:10104000F89460910F0170911001809111019091BD
:1010500012010E94750920E030E040E855E30E944B
:10106000DB090E943F096F7077277093040160933A
:10107000030160910F017091100180911101909115
:1010800012010E94750920E030E040E857E30E9419
:10109000DB090E943F096F70772770930601609308
:1010A000050160910F0170911001809111019091E3
:1010B00012010E94750920E030E040E859E30E94E7
:1010C000DB090E943F096F707727709308016093D6
:1010D000070160910F0170911001809111019091B1
:1010E00012010E94750920E030E040E85BE30E94B5
:1010F000DB090E943F096F70772770930A016093A4
:10110000090180910F0190911001A0911101B091FE
:10111000120124E0B695A795979587952A95D1F762
:101120008F70992790930C0180930B0180910F0190
:1011300090911001A0911101B09112018F70992727
:1011400090930E0180930D010E947B03789401150A
:10115000110509F4A4CE0E9400009ECEF89460917F
:101160000F0170911001809111019091120120E402
:1011700032E44FE050E00E94700A20EA36E841E095
:1011800050E00E94700A30930401209303016091A3
:101190000F0170911001809111019091120120EACC
:1011A00036E841E050E00E94700A20E137E240E07A
:1011B00050E00E94700A309306012093050160916F
:1011C0000F0170911001809111019091120120E1A5
:1011D00037E240E050E00E94700AA70196010E94A9
:1011E000700A309308012093070160910F017091FC
:1011F00010018091110190911201A70196010E94A6
:10120000700AA50194010E94700A30930A0120938C
:10121000090160910F01709110018091110190916D
:101220001201A50194010E94700AA30192010E947B
:10123000700A30930C0120930B0160910F017091A3
:1012400010018091110190911201A30192010E945D
:10125000700A70930E0160930D0176CFE2E6F2E022
:101260001382128288EE93E0A0E0B0E0848395833D
:10127000A683B78384EA91E09183808308950E94D6
:1012800046096894B1110C94D50908950E94BA09D1
:1012900088F09F5798F0B92F9927B751B0F0E1F037
:1012A000660F771F881F991F1AF0BA95C9F714C0E7
:1012B000B13091F00E94D409B1E008950C94D409A2
:1012C000672F782F8827B85F39F0B93FCCF3869520
:1012D00077956795B395D9F73EF49095809570957D
:1012E00061957F4F8F4F9F4F0895E89409C097FBFA
:1012F0003EF490958095709561957F4F8F4F9F4FED
:101300009923A9F0F92F96E9BB279395F695879530
:1013100077956795B795F111F8CFFAF4BB0F11F4F3
:1013200060FF1BC06F5F7F4F8F4F9F4F16C088239A
:1013300011F096E911C0772321F09EE8872F762FD0
:1013400005C0662371F096E8862F70E060E02AF011
:101350009A95660F771F881FDAF7880F96958795FD
:1013600097F9089557FD9058440F551F59F05F3F66
:1013700071F04795880F97FB991F61F09F3F79F0B7
:1013800087950895121613061406551FF2CF469539
:10139000F1DF08C0161617061806991FF1CF8695BB
:1013A0007105610508940895E894BB27662777279F
:1013B000CB0197F908950E94EE090C945F0A0E94F0
:1013C000510A38F00E94580A20F0952311F00C942D
:1013D000480A0C944E0A11240C94D5090E94B209B3
:1013E00070F3959FC1F3950F50E0551F629FF00178
:1013F000729FBB27F00DB11D639FAA27F00DB11D91
:10140000AA1F649F6627B00DA11D661F829F222719
:10141000B00DA11D621F739FB00DA11D621F839FA0
:10142000A00D611D221F749F3327A00D611D231F76
:10143000849F600D211D822F762F6A2F11249F57C4
:1014400050409AF0F1F088234AF0EE0FFF1FBB1FC7
:10145000661F771F881F91505040A9F79E3F510586
:1014600080F00C94480A0C94D5095F3FE4F3983E51
:10147000D4F3869577956795B795F795E7959F5F30
:10148000C1F7FE2B880F911D9695879597F90895C2
:1014900097F99F6780E870E060E008959FEF80EC27
:1014A000089500240A9416161706180609060895CA
:1014B00000240A9412161306140605060895092E30
:1014C0000394000C11F4882352F0BB0F40F4BF2B9F
:1014D00011F460FF04C06F5F7F4F8F4F9F4F0895DF
:1014E000A1E21A2EAA1BBB1BFD010DC0AA1FBB1F28
:1014F000EE1FFF1FA217B307E407F50720F0A21B9A
:10150000B30BE40BF50B661F771F881F991F1A9406
:1015100069F760957095809590959B01AC01BD0130
:10152000CF010895EE0FFF1F0590F491E02D09946F
:04153000F894FFCF5D
:101534000101000100020003000400050006004050
:10154400E2010001590259020101000100010101F7
:101554000000000100000001010100000101000180
:10156400000100010101000100000001010001016E
:10157400000100010101010001010001010101005C
:10158400000000010001000101010001010101014D
:10159400000100010101010101000001010101013B
:1015A400010100010100010001010000000101002E
:1015B400010100010100000101010000010101001D
:1015C4000100000001010100000000000000000013
:1015D400000000002D0300037803D602F902E6029E
:0215E400D7022C
:00000001FF
